{
  "contractName": "Health",
  "abi": [
    {
      "constant": true,
      "inputs": [
        {
          "name": "",
          "type": "uint256"
        }
      ],
      "name": "patientsArray",
      "outputs": [
        {
          "name": "",
          "type": "address"
        }
      ],
      "payable": false,
      "stateMutability": "view",
      "type": "function"
    },
    {
      "constant": true,
      "inputs": [
        {
          "name": "",
          "type": "address"
        }
      ],
      "name": "doctors",
      "outputs": [
        {
          "name": "exist",
          "type": "bool"
        },
        {
          "name": "name",
          "type": "string"
        }
      ],
      "payable": false,
      "stateMutability": "view",
      "type": "function"
    },
    {
      "constant": true,
      "inputs": [
        {
          "name": "",
          "type": "uint256"
        }
      ],
      "name": "doctorsArray",
      "outputs": [
        {
          "name": "",
          "type": "address"
        }
      ],
      "payable": false,
      "stateMutability": "view",
      "type": "function"
    },
    {
      "inputs": [],
      "payable": false,
      "stateMutability": "nonpayable",
      "type": "constructor"
    },
    {
      "constant": false,
      "inputs": [
        {
          "name": "_addr",
          "type": "address"
        },
        {
          "name": "_name",
          "type": "string"
        }
      ],
      "name": "addDoctor",
      "outputs": [
        {
          "name": "",
          "type": "bool"
        }
      ],
      "payable": false,
      "stateMutability": "nonpayable",
      "type": "function"
    },
    {
      "constant": false,
      "inputs": [
        {
          "name": "_addr",
          "type": "address"
        }
      ],
      "name": "removeDoctor",
      "outputs": [
        {
          "name": "",
          "type": "bool"
        }
      ],
      "payable": false,
      "stateMutability": "nonpayable",
      "type": "function"
    },
    {
      "constant": false,
      "inputs": [
        {
          "name": "_name",
          "type": "string"
        },
        {
          "name": "_DOB",
          "type": "string"
        },
        {
          "name": "_gender",
          "type": "string"
        },
        {
          "name": "_hseAddress",
          "type": "string"
        },
        {
          "name": "_contactNumber",
          "type": "string"
        }
      ],
      "name": "registerPatient",
      "outputs": [
        {
          "name": "",
          "type": "bool"
        }
      ],
      "payable": false,
      "stateMutability": "nonpayable",
      "type": "function"
    },
    {
      "constant": false,
      "inputs": [
        {
          "name": "_addr",
          "type": "address"
        }
      ],
      "name": "giveCreateOnlyAccessToDoctor",
      "outputs": [
        {
          "name": "",
          "type": "bool"
        }
      ],
      "payable": false,
      "stateMutability": "nonpayable",
      "type": "function"
    },
    {
      "constant": false,
      "inputs": [
        {
          "name": "_addr",
          "type": "address"
        }
      ],
      "name": "revokeCreateOnlyAccessToDoctor",
      "outputs": [
        {
          "name": "",
          "type": "bool"
        }
      ],
      "payable": false,
      "stateMutability": "nonpayable",
      "type": "function"
    },
    {
      "constant": false,
      "inputs": [
        {
          "name": "_addr",
          "type": "address"
        }
      ],
      "name": "giveViewOnlyAccessToDoctor",
      "outputs": [
        {
          "name": "",
          "type": "bool"
        }
      ],
      "payable": false,
      "stateMutability": "nonpayable",
      "type": "function"
    },
    {
      "constant": false,
      "inputs": [
        {
          "name": "_addr",
          "type": "address"
        }
      ],
      "name": "revokeViewOnlyAccessToDoctor",
      "outputs": [
        {
          "name": "",
          "type": "bool"
        }
      ],
      "payable": false,
      "stateMutability": "nonpayable",
      "type": "function"
    },
    {
      "constant": false,
      "inputs": [
        {
          "name": "_addr",
          "type": "address"
        },
        {
          "name": "_prescription",
          "type": "string"
        },
        {
          "name": "_visitDate",
          "type": "string"
        },
        {
          "name": "_additionalNotes",
          "type": "string"
        },
        {
          "name": "_fromPlace",
          "type": "string"
        }
      ],
      "name": "addPrescriptionForPatient",
      "outputs": [
        {
          "name": "",
          "type": "bool"
        }
      ],
      "payable": false,
      "stateMutability": "nonpayable",
      "type": "function"
    },
    {
      "constant": true,
      "inputs": [],
      "name": "getDoctorsCount",
      "outputs": [
        {
          "name": "count",
          "type": "uint256"
        }
      ],
      "payable": false,
      "stateMutability": "view",
      "type": "function"
    },
    {
      "constant": true,
      "inputs": [],
      "name": "getPatientsCount",
      "outputs": [
        {
          "name": "count",
          "type": "uint256"
        }
      ],
      "payable": false,
      "stateMutability": "view",
      "type": "function"
    },
    {
      "constant": true,
      "inputs": [],
      "name": "getPatientsWithCreateOnlyAccess",
      "outputs": [
        {
          "name": "_patients",
          "type": "address[]"
        }
      ],
      "payable": false,
      "stateMutability": "view",
      "type": "function"
    },
    {
      "constant": true,
      "inputs": [],
      "name": "getPatientsWithViewOnlyAccess",
      "outputs": [
        {
          "name": "_patients",
          "type": "address[]"
        }
      ],
      "payable": false,
      "stateMutability": "view",
      "type": "function"
    },
    {
      "constant": true,
      "inputs": [],
      "name": "getDoctorsWithViewOnlyAccess",
      "outputs": [
        {
          "name": "_doctors",
          "type": "address[]"
        }
      ],
      "payable": false,
      "stateMutability": "view",
      "type": "function"
    },
    {
      "constant": true,
      "inputs": [],
      "name": "getDoctorsWithCreateOnlyAccess",
      "outputs": [
        {
          "name": "",
          "type": "address[]"
        }
      ],
      "payable": false,
      "stateMutability": "view",
      "type": "function"
    },
    {
      "constant": true,
      "inputs": [
        {
          "name": "_addr",
          "type": "address"
        }
      ],
      "name": "getPatients",
      "outputs": [
        {
          "name": "_name",
          "type": "string"
        },
        {
          "name": "_DOB",
          "type": "string"
        },
        {
          "name": "_gender",
          "type": "string"
        }
      ],
      "payable": false,
      "stateMutability": "view",
      "type": "function"
    },
    {
      "constant": true,
      "inputs": [
        {
          "name": "_addr",
          "type": "address"
        }
      ],
      "name": "getPatientsRecordsCount",
      "outputs": [
        {
          "name": "count",
          "type": "uint256"
        }
      ],
      "payable": false,
      "stateMutability": "view",
      "type": "function"
    },
    {
      "constant": true,
      "inputs": [
        {
          "name": "_addr",
          "type": "address"
        },
        {
          "name": "index",
          "type": "uint256"
        }
      ],
      "name": "getPatientsRecords",
      "outputs": [
        {
          "name": "_prescriptionData",
          "type": "string"
        },
        {
          "name": "_doctorAddress",
          "type": "address"
        },
        {
          "name": "_doctorName",
          "type": "string"
        },
        {
          "name": "_visitDate",
          "type": "string"
        },
        {
          "name": "_additionalNotes",
          "type": "string"
        },
        {
          "name": "_fromPlace",
          "type": "string"
        }
      ],
      "payable": false,
      "stateMutability": "view",
      "type": "function"
    }
  ],
  "bytecode": "0x608060405234801561001057600080fd5b50336000806101000a81548173ffffffffffffffffffffffffffffffffffffffff021916908373ffffffffffffffffffffffffffffffffffffffff1602179055506146c1806100606000396000f3fe608060405260043610610112576000357c0100000000000000000000000000000000000000000000000000000000900463ffffffff1680630c20e22514610117578063177d4e0a146101805780631c736b03146101e95780631eda424e1461025557806331357af2146102d05780633230f40e146102fb5780633479f8f01461036757806350fcd20c146103cc5780635e43b7f414610435578063711e941c146105d75780637cf1e4451461091357806385a68c5f14610a13578063946d90fd14610cca57806398fc90e914610d33578063a9583c2214610d9c578063aaac255614610e71578063b137085114610edd578063e2d0e4a914610f49578063ebc9b2f414610fc4578063efb7d3ba14610fef575b600080fd5b34801561012357600080fd5b506101666004803603602081101561013a57600080fd5b81019080803573ffffffffffffffffffffffffffffffffffffffff1690602001909291905050506112b4565b604051808215151515815260200191505060405180910390f35b34801561018c57600080fd5b506101cf600480360360208110156101a357600080fd5b81019080803573ffffffffffffffffffffffffffffffffffffffff16906020019092919050505061160d565b604051808215151515815260200191505060405180910390f35b3480156101f557600080fd5b506101fe611965565b6040518080602001828103825283818151815260200191508051906020019060200280838360005b83811015610241578082015181840152602081019050610226565b505050509050019250505060405180910390f35b34801561026157600080fd5b5061028e6004803603602081101561027857600080fd5b8101908080359060200190929190505050611be7565b604051808273ffffffffffffffffffffffffffffffffffffffff1673ffffffffffffffffffffffffffffffffffffffff16815260200191505060405180910390f35b3480156102dc57600080fd5b506102e5611c25565b6040518082815260200191505060405180910390f35b34801561030757600080fd5b50610310611c32565b6040518080602001828103825283818151815260200191508051906020019060200280838360005b83811015610353578082015181840152602081019050610338565b505050509050019250505060405180910390f35b34801561037357600080fd5b506103b66004803603602081101561038a57600080fd5b81019080803573ffffffffffffffffffffffffffffffffffffffff169060200190929190505050611eb4565b6040518082815260200191505060405180910390f35b3480156103d857600080fd5b5061041b600480360360208110156103ef57600080fd5b81019080803573ffffffffffffffffffffffffffffffffffffffff169060200190929190505050612127565b604051808215151515815260200191505060405180910390f35b34801561044157600080fd5b506104846004803603602081101561045857600080fd5b81019080803573ffffffffffffffffffffffffffffffffffffffff169060200190929190505050612480565b60405180806020018060200180602001848103845287818151815260200191508051906020019080838360005b838110156104cc5780820151818401526020810190506104b1565b50505050905090810190601f1680156104f95780820380516001836020036101000a031916815260200191505b50848103835286818151815260200191508051906020019080838360005b83811015610532578082015181840152602081019050610517565b50505050905090810190601f16801561055f5780820380516001836020036101000a031916815260200191505b50848103825285818151815260200191508051906020019080838360005b8381101561059857808201518184015260208101905061057d565b50505050905090810190601f1680156105c55780820380516001836020036101000a031916815260200191505b50965050505050505060405180910390f35b3480156105e357600080fd5b506108f9600480360360a08110156105fa57600080fd5b810190808035906020019064010000000081111561061757600080fd5b82018360208201111561062957600080fd5b8035906020019184600183028401116401000000008311171561064b57600080fd5b91908080601f016020809104026020016040519081016040528093929190818152602001838380828437600081840152601f19601f820116905080830192505050505050509192919290803590602001906401000000008111156106ae57600080fd5b8201836020820111156106c057600080fd5b803590602001918460018302840111640100000000831117156106e257600080fd5b91908080601f016020809104026020016040519081016040528093929190818152602001838380828437600081840152601f19601f8201169050808301925050505050505091929192908035906020019064010000000081111561074557600080fd5b82018360208201111561075757600080fd5b8035906020019184600183028401116401000000008311171561077957600080fd5b91908080601f016020809104026020016040519081016040528093929190818152602001838380828437600081840152601f19601f820116905080830192505050505050509192919290803590602001906401000000008111156107dc57600080fd5b8201836020820111156107ee57600080fd5b8035906020019184600183028401116401000000008311171561081057600080fd5b91908080601f016020809104026020016040519081016040528093929190818152602001838380828437600081840152601f19601f8201169050808301925050505050505091929192908035906020019064010000000081111561087357600080fd5b82018360208201111561088557600080fd5b803590602001918460018302840111640100000000831117156108a757600080fd5b91908080601f016020809104026020016040519081016040528093929190818152602001838380828437600081840152601f19601f820116905080830192505050505050509192919290505050612947565b604051808215151515815260200191505060405180910390f35b34801561091f57600080fd5b506109f96004803603604081101561093657600080fd5b81019080803573ffffffffffffffffffffffffffffffffffffffff1690602001909291908035906020019064010000000081111561097357600080fd5b82018360208201111561098557600080fd5b803590602001918460018302840111640100000000831117156109a757600080fd5b91908080601f016020809104026020016040519081016040528093929190818152602001838380828437600081840152601f19601f820116905080830192505050505050509192919290505050612c38565b604051808215151515815260200191505060405180910390f35b348015610a1f57600080fd5b50610a6c60048036036040811015610a3657600080fd5b81019080803573ffffffffffffffffffffffffffffffffffffffff16906020019092919080359060200190929190505050612e7b565b60405180806020018773ffffffffffffffffffffffffffffffffffffffff1673ffffffffffffffffffffffffffffffffffffffff1681526020018060200180602001806020018060200186810386528c818151815260200191508051906020019080838360005b83811015610aee578082015181840152602081019050610ad3565b50505050905090810190601f168015610b1b5780820380516001836020036101000a031916815260200191505b5086810385528a818151815260200191508051906020019080838360005b83811015610b54578082015181840152602081019050610b39565b50505050905090810190601f168015610b815780820380516001836020036101000a031916815260200191505b50868103845289818151815260200191508051906020019080838360005b83811015610bba578082015181840152602081019050610b9f565b50505050905090810190601f168015610be75780820380516001836020036101000a031916815260200191505b50868103835288818151815260200191508051906020019080838360005b83811015610c20578082015181840152602081019050610c05565b50505050905090810190601f168015610c4d5780820380516001836020036101000a031916815260200191505b50868103825287818151815260200191508051906020019080838360005b83811015610c86578082015181840152602081019050610c6b565b50505050905090810190601f168015610cb35780820380516001836020036101000a031916815260200191505b509b50505050505050505050505060405180910390f35b348015610cd657600080fd5b50610d1960048036036020811015610ced57600080fd5b81019080803573ffffffffffffffffffffffffffffffffffffffff1690602001909291905050506135ff565b604051808215151515815260200191505060405180910390f35b348015610d3f57600080fd5b50610d8260048036036020811015610d5657600080fd5b81019080803573ffffffffffffffffffffffffffffffffffffffff169060200190929190505050613957565b604051808215151515815260200191505060405180910390f35b348015610da857600080fd5b50610deb60048036036020811015610dbf57600080fd5b81019080803573ffffffffffffffffffffffffffffffffffffffff169060200190929190505050613adc565b604051808315151515815260200180602001828103825283818151815260200191508051906020019080838360005b83811015610e35578082015181840152602081019050610e1a565b50505050905090810190601f168015610e625780820380516001836020036101000a031916815260200191505b50935050505060405180910390f35b348015610e7d57600080fd5b50610e86613ba5565b6040518080602001828103825283818151815260200191508051906020019060200280838360005b83811015610ec9578082015181840152602081019050610eae565b505050509050019250505060405180910390f35b348015610ee957600080fd5b50610ef2613e27565b6040518080602001828103825283818151815260200191508051906020019060200280838360005b83811015610f35578082015181840152602081019050610f1a565b505050509050019250505060405180910390f35b348015610f5557600080fd5b50610f8260048036036020811015610f6c57600080fd5b81019080803590602001909291905050506140a9565b604051808273ffffffffffffffffffffffffffffffffffffffff1673ffffffffffffffffffffffffffffffffffffffff16815260200191505060405180910390f35b348015610fd057600080fd5b50610fd96140e7565b6040518082815260200191505060405180910390f35b348015610ffb57600080fd5b5061129a600480360360a081101561101257600080fd5b81019080803573ffffffffffffffffffffffffffffffffffffffff1690602001909291908035906020019064010000000081111561104f57600080fd5b82018360208201111561106157600080fd5b8035906020019184600183028401116401000000008311171561108357600080fd5b91908080601f016020809104026020016040519081016040528093929190818152602001838380828437600081840152601f19601f820116905080830192505050505050509192919290803590602001906401000000008111156110e657600080fd5b8201836020820111156110f857600080fd5b8035906020019184600183028401116401000000008311171561111a57600080fd5b91908080601f016020809104026020016040519081016040528093929190818152602001838380828437600081840152601f19601f8201169050808301925050505050505091929192908035906020019064010000000081111561117d57600080fd5b82018360208201111561118f57600080fd5b803590602001918460018302840111640100000000831117156111b157600080fd5b91908080601f016020809104026020016040519081016040528093929190818152602001838380828437600081840152601f19601f8201169050808301925050505050505091929192908035906020019064010000000081111561121457600080fd5b82018360208201111561122657600080fd5b8035906020019184600183028401116401000000008311171561124857600080fd5b91908080601f016020809104026020016040519081016040528093929190818152602001838380828437600081840152601f19601f8201169050808301925050505050505091929192905050506140f4565b604051808215151515815260200191505060405180910390f35b6000600160008373ffffffffffffffffffffffffffffffffffffffff1673ffffffffffffffffffffffffffffffffffffffff16815260200190815260200160002060000160009054906101000a900460ff16151561137a576040517f08c379a00000000000000000000000000000000000000000000000000000000081526004018080602001828103825260158152602001807f446f63746f7220646f6573206e6f74206578697374000000000000000000000081525060200191505060405180910390fd5b600260003373ffffffffffffffffffffffffffffffffffffffff1673ffffffffffffffffffffffffffffffffffffffff16815260200190815260200160002060000160009054906101000a900460ff161515611464576040517f08c379a00000000000000000000000000000000000000000000000000000000081526004018080602001828103825260358152602001807f50617469656e74207265636f726420646f6573206e6f742065786973742e506c81526020017f656173652072656769737465722066697273742121000000000000000000000081525060400191505060405180910390fd5b600260003373ffffffffffffffffffffffffffffffffffffffff1673ffffffffffffffffffffffffffffffffffffffff16815260200190815260200160002060060160008373ffffffffffffffffffffffffffffffffffffffff1673ffffffffffffffffffffffffffffffffffffffff16815260200190815260200160002060000160019054906101000a900460ff16151515611569576040517f08c379a000000000000000000000000000000000000000000000000000000000815260040180806020018281038252601c8152602001807f446f63746f7220616c726561647920686173206163636573732021210000000081525060200191505060405180910390fd5b6001600260003373ffffffffffffffffffffffffffffffffffffffff1673ffffffffffffffffffffffffffffffffffffffff16815260200190815260200160002060060160008473ffffffffffffffffffffffffffffffffffffffff1673ffffffffffffffffffffffffffffffffffffffff16815260200190815260200160002060000160016101000a81548160ff02191690831515021790555060019050919050565b6000600160008373ffffffffffffffffffffffffffffffffffffffff1673ffffffffffffffffffffffffffffffffffffffff16815260200190815260200160002060000160009054906101000a900460ff1615156116d3576040517f08c379a00000000000000000000000000000000000000000000000000000000081526004018080602001828103825260158152602001807f446f63746f7220646f6573206e6f74206578697374000000000000000000000081525060200191505060405180910390fd5b600260003373ffffffffffffffffffffffffffffffffffffffff1673ffffffffffffffffffffffffffffffffffffffff16815260200190815260200160002060000160009054906101000a900460ff1615156117bd576040517f08c379a00000000000000000000000000000000000000000000000000000000081526004018080602001828103825260358152602001807f50617469656e74207265636f726420646f6573206e6f742065786973742e506c81526020017f656173652072656769737465722066697273742121000000000000000000000081525060400191505060405180910390fd5b600260003373ffffffffffffffffffffffffffffffffffffffff1673ffffffffffffffffffffffffffffffffffffffff16815260200190815260200160002060060160008373ffffffffffffffffffffffffffffffffffffffff1673ffffffffffffffffffffffffffffffffffffffff16815260200190815260200160002060000160019054906101000a900460ff1615156118c1576040517f08c379a000000000000000000000000000000000000000000000000000000000815260040180806020018281038252601b8152602001807f446f63746f7220646f206e6f742068617320616363657373202121000000000081525060200191505060405180910390fd5b6000600260003373ffffffffffffffffffffffffffffffffffffffff1673ffffffffffffffffffffffffffffffffffffffff16815260200190815260200160002060060160008473ffffffffffffffffffffffffffffffffffffffff1673ffffffffffffffffffffffffffffffffffffffff16815260200190815260200160002060000160016101000a81548160ff02191690831515021790555060019050919050565b6060600160003373ffffffffffffffffffffffffffffffffffffffff1673ffffffffffffffffffffffffffffffffffffffff16815260200190815260200160002060000160009054906101000a900460ff161515611a2b576040517f08c379a00000000000000000000000000000000000000000000000000000000081526004018080602001828103825260158152602001807f446f63746f72204e6f742052656769737465726564000000000000000000000081525060200191505060405180910390fd5b60006004805490509050606081604051908082528060200260200182016040528015611a665781602001602082028038833980820191505090505b50905060008090505b611a776140e7565b811015611bde5760026000600483815481101515611a9157fe5b9060005260206000200160009054906101000a900473ffffffffffffffffffffffffffffffffffffffff1673ffffffffffffffffffffffffffffffffffffffff1673ffffffffffffffffffffffffffffffffffffffff16815260200190815260200160002060060160003373ffffffffffffffffffffffffffffffffffffffff1673ffffffffffffffffffffffffffffffffffffffff16815260200190815260200160002060000160019054906101000a900460ff1615611bd157600481815481101515611b5b57fe5b9060005260206000200160009054906101000a900473ffffffffffffffffffffffffffffffffffffffff168282815181101515611b9457fe5b9060200190602002019073ffffffffffffffffffffffffffffffffffffffff16908173ffffffffffffffffffffffffffffffffffffffff16815250505b8080600101915050611a6f565b50809250505090565b600481815481101515611bf657fe5b906000526020600020016000915054906101000a900473ffffffffffffffffffffffffffffffffffffffff1681565b6000600380549050905090565b6060600160003373ffffffffffffffffffffffffffffffffffffffff1673ffffffffffffffffffffffffffffffffffffffff16815260200190815260200160002060000160009054906101000a900460ff161515611cf8576040517f08c379a00000000000000000000000000000000000000000000000000000000081526004018080602001828103825260158152602001807f446f63746f72204e6f742052656769737465726564000000000000000000000081525060200191505060405180910390fd5b60006004805490509050606081604051908082528060200260200182016040528015611d335781602001602082028038833980820191505090505b50905060008090505b611d446140e7565b811015611eab5760026000600483815481101515611d5e57fe5b9060005260206000200160009054906101000a900473ffffffffffffffffffffffffffffffffffffffff1673ffffffffffffffffffffffffffffffffffffffff1673ffffffffffffffffffffffffffffffffffffffff16815260200190815260200160002060060160003373ffffffffffffffffffffffffffffffffffffffff1673ffffffffffffffffffffffffffffffffffffffff16815260200190815260200160002060000160009054906101000a900460ff1615611e9e57600481815481101515611e2857fe5b9060005260206000200160009054906101000a900473ffffffffffffffffffffffffffffffffffffffff168282815181101515611e6157fe5b9060200190602002019073ffffffffffffffffffffffffffffffffffffffff16908173ffffffffffffffffffffffffffffffffffffffff16815250505b8080600101915050611d3c565b50809250505090565b6000600260008373ffffffffffffffffffffffffffffffffffffffff1673ffffffffffffffffffffffffffffffffffffffff16815260200190815260200160002060000160009054906101000a900460ff161515611fa0576040517f08c379a00000000000000000000000000000000000000000000000000000000081526004018080602001828103825260358152602001807f50617469656e74207265636f726420646f6573206e6f742065786973742e506c81526020017f656173652072656769737465722066697273742121000000000000000000000081525060400191505060405180910390fd5b600260008373ffffffffffffffffffffffffffffffffffffffff1673ffffffffffffffffffffffffffffffffffffffff16815260200190815260200160002060060160003373ffffffffffffffffffffffffffffffffffffffff1673ffffffffffffffffffffffffffffffffffffffff16815260200190815260200160002060000160019054906101000a900460ff168061206657503373ffffffffffffffffffffffffffffffffffffffff168273ffffffffffffffffffffffffffffffffffffffff16145b15156120da576040517f08c379a000000000000000000000000000000000000000000000000000000000815260040180806020018281038252601a8152602001807f446f206e6f74206861732076696577206163636573732020212100000000000081525060200191505060405180910390fd5b600260008373ffffffffffffffffffffffffffffffffffffffff1673ffffffffffffffffffffffffffffffffffffffff168152602001908152602001600020600701805490509050919050565b6000600160008373ffffffffffffffffffffffffffffffffffffffff1673ffffffffffffffffffffffffffffffffffffffff16815260200190815260200160002060000160009054906101000a900460ff1615156121ed576040517f08c379a00000000000000000000000000000000000000000000000000000000081526004018080602001828103825260158152602001807f446f63746f7220646f6573206e6f74206578697374000000000000000000000081525060200191505060405180910390fd5b600260003373ffffffffffffffffffffffffffffffffffffffff1673ffffffffffffffffffffffffffffffffffffffff16815260200190815260200160002060000160009054906101000a900460ff1615156122d7576040517f08c379a00000000000000000000000000000000000000000000000000000000081526004018080602001828103825260358152602001807f50617469656e74207265636f726420646f6573206e6f742065786973742e506c81526020017f656173652072656769737465722066697273742121000000000000000000000081525060400191505060405180910390fd5b600260003373ffffffffffffffffffffffffffffffffffffffff1673ffffffffffffffffffffffffffffffffffffffff16815260200190815260200160002060060160008373ffffffffffffffffffffffffffffffffffffffff1673ffffffffffffffffffffffffffffffffffffffff16815260200190815260200160002060000160009054906101000a900460ff161515156123dc576040517f08c379a000000000000000000000000000000000000000000000000000000000815260040180806020018281038252601c8152602001807f446f63746f7220616c726561647920686173206163636573732021210000000081525060200191505060405180910390fd5b6001600260003373ffffffffffffffffffffffffffffffffffffffff1673ffffffffffffffffffffffffffffffffffffffff16815260200190815260200160002060060160008473ffffffffffffffffffffffffffffffffffffffff1673ffffffffffffffffffffffffffffffffffffffff16815260200190815260200160002060000160006101000a81548160ff02191690831515021790555060019050919050565b6060806060600260008573ffffffffffffffffffffffffffffffffffffffff1673ffffffffffffffffffffffffffffffffffffffff16815260200190815260200160002060000160009054906101000a900460ff16151561256f576040517f08c379a00000000000000000000000000000000000000000000000000000000081526004018080602001828103825260358152602001807f50617469656e74207265636f726420646f6573206e6f742065786973742e506c81526020017f656173652072656769737465722066697273742121000000000000000000000081525060400191505060405180910390fd5b600260008573ffffffffffffffffffffffffffffffffffffffff1673ffffffffffffffffffffffffffffffffffffffff16815260200190815260200160002060060160003373ffffffffffffffffffffffffffffffffffffffff1673ffffffffffffffffffffffffffffffffffffffff16815260200190815260200160002060000160019054906101000a900460ff168061263557503373ffffffffffffffffffffffffffffffffffffffff168473ffffffffffffffffffffffffffffffffffffffff16145b15156126a9576040517f08c379a00000000000000000000000000000000000000000000000000000000081526004018080602001828103825260198152602001807f446f206e6f74206861732076696577206163636573732021210000000000000081525060200191505060405180910390fd5b600260008573ffffffffffffffffffffffffffffffffffffffff1673ffffffffffffffffffffffffffffffffffffffff1681526020019081526020016000206001018054600181600116156101000203166002900480601f01602080910402602001604051908101604052809291908181526020018280546001816001161561010002031660029004801561277f5780601f106127545761010080835404028352916020019161277f565b820191906000526020600020905b81548152906001019060200180831161276257829003601f168201915b50505050509250600260008573ffffffffffffffffffffffffffffffffffffffff1673ffffffffffffffffffffffffffffffffffffffff1681526020019081526020016000206003018054600181600116156101000203166002900480601f01602080910402602001604051908101604052809291908181526020018280546001816001161561010002031660029004801561285c5780601f106128315761010080835404028352916020019161285c565b820191906000526020600020905b81548152906001019060200180831161283f57829003601f168201915b50505050509050600260008573ffffffffffffffffffffffffffffffffffffffff1673ffffffffffffffffffffffffffffffffffffffff1681526020019081526020016000206002018054600181600116156101000203166002900480601f0160208091040260200160405190810160405280929190818152602001828054600181600116156101000203166002900480156129395780601f1061290e57610100808354040283529160200191612939565b820191906000526020600020905b81548152906001019060200180831161291c57829003601f168201915b505050505091509193909250565b6000600260003373ffffffffffffffffffffffffffffffffffffffff1673ffffffffffffffffffffffffffffffffffffffff16815260200190815260200160002060000160009054906101000a900460ff16151515612a0e576040517f08c379a00000000000000000000000000000000000000000000000000000000081526004018080602001828103825260158152602001807f50617469656e7420416c7265616479206578697374000000000000000000000081525060200191505060405180910390fd5b6001600260003373ffffffffffffffffffffffffffffffffffffffff1673ffffffffffffffffffffffffffffffffffffffff16815260200190815260200160002060000160006101000a81548160ff02191690831515021790555085600260003373ffffffffffffffffffffffffffffffffffffffff1673ffffffffffffffffffffffffffffffffffffffff1681526020019081526020016000206001019080519060200190612abf92919061452a565b5084600260003373ffffffffffffffffffffffffffffffffffffffff1673ffffffffffffffffffffffffffffffffffffffff1681526020019081526020016000206002019080519060200190612b1692919061452a565b5082600260003373ffffffffffffffffffffffffffffffffffffffff1673ffffffffffffffffffffffffffffffffffffffff1681526020019081526020016000206004019080519060200190612b6d92919061452a565b5081600260003373ffffffffffffffffffffffffffffffffffffffff1673ffffffffffffffffffffffffffffffffffffffff1681526020019081526020016000206005019080519060200190612bc492919061452a565b5060043390806001815401808255809150509060018203906000526020600020016000909192909190916101000a81548173ffffffffffffffffffffffffffffffffffffffff021916908373ffffffffffffffffffffffffffffffffffffffff160217905550506001905095945050505050565b60008060009054906101000a900473ffffffffffffffffffffffffffffffffffffffff1673ffffffffffffffffffffffffffffffffffffffff163373ffffffffffffffffffffffffffffffffffffffff16141515612c9557600080fd5b600160008473ffffffffffffffffffffffffffffffffffffffff1673ffffffffffffffffffffffffffffffffffffffff16815260200190815260200160002060000160009054906101000a900460ff16151515612d5a576040517f08c379a00000000000000000000000000000000000000000000000000000000081526004018080602001828103825260148152602001807f446f63746f7220416c726561647920657869737400000000000000000000000081525060200191505060405180910390fd5b81600160008573ffffffffffffffffffffffffffffffffffffffff1673ffffffffffffffffffffffffffffffffffffffff1681526020019081526020016000206001019080519060200190612db092919061452a565b5060018060008573ffffffffffffffffffffffffffffffffffffffff1673ffffffffffffffffffffffffffffffffffffffff16815260200190815260200160002060000160006101000a81548160ff02191690831515021790555060038390806001815401808255809150509060018203906000526020600020016000909192909190916101000a81548173ffffffffffffffffffffffffffffffffffffffff021916908373ffffffffffffffffffffffffffffffffffffffff160217905550506001905092915050565b60606000606080606080600260008973ffffffffffffffffffffffffffffffffffffffff1673ffffffffffffffffffffffffffffffffffffffff16815260200190815260200160002060000160009054906101000a900460ff161515612f6f576040517f08c379a00000000000000000000000000000000000000000000000000000000081526004018080602001828103825260358152602001807f50617469656e74207265636f726420646f6573206e6f742065786973742e506c81526020017f656173652072656769737465722066697273742121000000000000000000000081525060400191505060405180910390fd5b600260008973ffffffffffffffffffffffffffffffffffffffff1673ffffffffffffffffffffffffffffffffffffffff16815260200190815260200160002060060160003373ffffffffffffffffffffffffffffffffffffffff1673ffffffffffffffffffffffffffffffffffffffff16815260200190815260200160002060000160019054906101000a900460ff168061303557503373ffffffffffffffffffffffffffffffffffffffff168873ffffffffffffffffffffffffffffffffffffffff16145b15156130a9576040517f08c379a00000000000000000000000000000000000000000000000000000000081526004018080602001828103825260198152602001807f446f206e6f74206861732076696577206163636573732021210000000000000081525060200191505060405180910390fd5b600260008973ffffffffffffffffffffffffffffffffffffffff1673ffffffffffffffffffffffffffffffffffffffff168152602001908152602001600020600701878154811015156130f857fe5b90600052602060002090600502016000018054600181600116156101000203166002900480601f01602080910402602001604051908101604052809291908181526020018280546001816001161561010002031660029004801561319d5780601f106131725761010080835404028352916020019161319d565b820191906000526020600020905b81548152906001019060200180831161318057829003601f168201915b50505050509550600260008973ffffffffffffffffffffffffffffffffffffffff1673ffffffffffffffffffffffffffffffffffffffff168152602001908152602001600020600701878154811015156131f357fe5b906000526020600020906005020160010160009054906101000a900473ffffffffffffffffffffffffffffffffffffffff169450600160008673ffffffffffffffffffffffffffffffffffffffff1673ffffffffffffffffffffffffffffffffffffffff1681526020019081526020016000206001018054600181600116156101000203166002900480601f0160208091040260200160405190810160405280929190818152602001828054600181600116156101000203166002900480156132fd5780601f106132d2576101008083540402835291602001916132fd565b820191906000526020600020905b8154815290600101906020018083116132e057829003601f168201915b50505050509350600260008973ffffffffffffffffffffffffffffffffffffffff1673ffffffffffffffffffffffffffffffffffffffff1681526020019081526020016000206007018781548110151561335357fe5b90600052602060002090600502016002018054600181600116156101000203166002900480601f0160208091040260200160405190810160405280929190818152602001828054600181600116156101000203166002900480156133f85780601f106133cd576101008083540402835291602001916133f8565b820191906000526020600020905b8154815290600101906020018083116133db57829003601f168201915b50505050509250600260008973ffffffffffffffffffffffffffffffffffffffff1673ffffffffffffffffffffffffffffffffffffffff1681526020019081526020016000206007018781548110151561344e57fe5b90600052602060002090600502016003018054600181600116156101000203166002900480601f0160208091040260200160405190810160405280929190818152602001828054600181600116156101000203166002900480156134f35780601f106134c8576101008083540402835291602001916134f3565b820191906000526020600020905b8154815290600101906020018083116134d657829003601f168201915b50505050509150600260008973ffffffffffffffffffffffffffffffffffffffff1673ffffffffffffffffffffffffffffffffffffffff1681526020019081526020016000206007018781548110151561354957fe5b90600052602060002090600502016004018054600181600116156101000203166002900480601f0160208091040260200160405190810160405280929190818152602001828054600181600116156101000203166002900480156135ee5780601f106135c3576101008083540402835291602001916135ee565b820191906000526020600020905b8154815290600101906020018083116135d157829003601f168201915b505050505090509295509295509295565b6000600160008373ffffffffffffffffffffffffffffffffffffffff1673ffffffffffffffffffffffffffffffffffffffff16815260200190815260200160002060000160009054906101000a900460ff1615156136c5576040517f08c379a00000000000000000000000000000000000000000000000000000000081526004018080602001828103825260158152602001807f446f63746f7220646f6573206e6f74206578697374000000000000000000000081525060200191505060405180910390fd5b600260003373ffffffffffffffffffffffffffffffffffffffff1673ffffffffffffffffffffffffffffffffffffffff16815260200190815260200160002060000160009054906101000a900460ff1615156137af576040517f08c379a00000000000000000000000000000000000000000000000000000000081526004018080602001828103825260358152602001807f50617469656e74207265636f726420646f6573206e6f742065786973742e506c81526020017f656173652072656769737465722066697273742121000000000000000000000081525060400191505060405180910390fd5b600260003373ffffffffffffffffffffffffffffffffffffffff1673ffffffffffffffffffffffffffffffffffffffff16815260200190815260200160002060060160008373ffffffffffffffffffffffffffffffffffffffff1673ffffffffffffffffffffffffffffffffffffffff16815260200190815260200160002060000160009054906101000a900460ff1615156138b3576040517f08c379a000000000000000000000000000000000000000000000000000000000815260040180806020018281038252601b8152602001807f446f63746f7220646f206e6f742068617320616363657373202121000000000081525060200191505060405180910390fd5b6000600260003373ffffffffffffffffffffffffffffffffffffffff1673ffffffffffffffffffffffffffffffffffffffff16815260200190815260200160002060060160008473ffffffffffffffffffffffffffffffffffffffff1673ffffffffffffffffffffffffffffffffffffffff16815260200190815260200160002060000160006101000a81548160ff02191690831515021790555060019050919050565b60008060009054906101000a900473ffffffffffffffffffffffffffffffffffffffff1673ffffffffffffffffffffffffffffffffffffffff163373ffffffffffffffffffffffffffffffffffffffff161415156139b457600080fd5b600160008373ffffffffffffffffffffffffffffffffffffffff1673ffffffffffffffffffffffffffffffffffffffff16815260200190815260200160002060000160009054906101000a900460ff161515613a78576040517f08c379a00000000000000000000000000000000000000000000000000000000081526004018080602001828103825260158152602001807f446f63746f7220646f6573206e6f74206578697374000000000000000000000081525060200191505060405180910390fd5b6000600160008473ffffffffffffffffffffffffffffffffffffffff1673ffffffffffffffffffffffffffffffffffffffff16815260200190815260200160002060000160006101000a81548160ff02191690831515021790555060019050919050565b60016020528060005260406000206000915090508060000160009054906101000a900460ff1690806001018054600181600116156101000203166002900480601f016020809104026020016040519081016040528092919081815260200182805460018160011615610100020316600290048015613b9b5780601f10613b7057610100808354040283529160200191613b9b565b820191906000526020600020905b815481529060010190602001808311613b7e57829003601f168201915b5050505050905082565b6060600260003373ffffffffffffffffffffffffffffffffffffffff1673ffffffffffffffffffffffffffffffffffffffff16815260200190815260200160002060000160009054906101000a900460ff161515613c6b576040517f08c379a00000000000000000000000000000000000000000000000000000000081526004018080602001828103825260168152602001807f50617469656e74204e6f7420526567697374657265640000000000000000000081525060200191505060405180910390fd5b60006003805490509050606081604051908082528060200260200182016040528015613ca65781602001602082028038833980820191505090505b50905060008090505b613cb7611c25565b811015613e1e57600260003373ffffffffffffffffffffffffffffffffffffffff1673ffffffffffffffffffffffffffffffffffffffff1681526020019081526020016000206006016000600383815481101515613d1157fe5b9060005260206000200160009054906101000a900473ffffffffffffffffffffffffffffffffffffffff1673ffffffffffffffffffffffffffffffffffffffff1673ffffffffffffffffffffffffffffffffffffffff16815260200190815260200160002060000160009054906101000a900460ff1615613e1157600381815481101515613d9b57fe5b9060005260206000200160009054906101000a900473ffffffffffffffffffffffffffffffffffffffff168282815181101515613dd457fe5b9060200190602002019073ffffffffffffffffffffffffffffffffffffffff16908173ffffffffffffffffffffffffffffffffffffffff16815250505b8080600101915050613caf565b50809250505090565b6060600260003373ffffffffffffffffffffffffffffffffffffffff1673ffffffffffffffffffffffffffffffffffffffff16815260200190815260200160002060000160009054906101000a900460ff161515613eed576040517f08c379a00000000000000000000000000000000000000000000000000000000081526004018080602001828103825260168152602001807f50617469656e74204e6f7420526567697374657265640000000000000000000081525060200191505060405180910390fd5b60006003805490509050606081604051908082528060200260200182016040528015613f285781602001602082028038833980820191505090505b50905060008090505b613f39611c25565b8110156140a057600260003373ffffffffffffffffffffffffffffffffffffffff1673ffffffffffffffffffffffffffffffffffffffff1681526020019081526020016000206006016000600383815481101515613f9357fe5b9060005260206000200160009054906101000a900473ffffffffffffffffffffffffffffffffffffffff1673ffffffffffffffffffffffffffffffffffffffff1673ffffffffffffffffffffffffffffffffffffffff16815260200190815260200160002060000160019054906101000a900460ff16156140935760038181548110151561401d57fe5b9060005260206000200160009054906101000a900473ffffffffffffffffffffffffffffffffffffffff16828281518110151561405657fe5b9060200190602002019073ffffffffffffffffffffffffffffffffffffffff16908173ffffffffffffffffffffffffffffffffffffffff16815250505b8080600101915050613f31565b50809250505090565b6003818154811015156140b857fe5b906000526020600020016000915054906101000a900473ffffffffffffffffffffffffffffffffffffffff1681565b6000600480549050905090565b6000600160003373ffffffffffffffffffffffffffffffffffffffff1673ffffffffffffffffffffffffffffffffffffffff16815260200190815260200160002060000160009054906101000a900460ff1615156141e0576040517f08c379a000000000000000000000000000000000000000000000000000000000815260040180806020018281038252602c8152602001807f446f63746f7220646f6573206e6f742065786973742e20706c6561736520726581526020017f676973746572206669727374000000000000000000000000000000000000000081525060400191505060405180910390fd5b600260008773ffffffffffffffffffffffffffffffffffffffff1673ffffffffffffffffffffffffffffffffffffffff16815260200190815260200160002060000160009054906101000a900460ff1615156142a4576040517f08c379a000000000000000000000000000000000000000000000000000000000815260040180806020018281038252601e8152602001807f50617469656e74207265636f726420646f6573206e6f742065786973742e000081525060200191505060405180910390fd5b600260008773ffffffffffffffffffffffffffffffffffffffff1673ffffffffffffffffffffffffffffffffffffffff16815260200190815260200160002060060160003373ffffffffffffffffffffffffffffffffffffffff1673ffffffffffffffffffffffffffffffffffffffff16815260200190815260200160002060000160009054906101000a900460ff1615156143a8576040517f08c379a000000000000000000000000000000000000000000000000000000000815260040180806020018281038252601b8152602001807f446f63746f7220646f206e6f742068617320616363657373202121000000000081525060200191505060405180910390fd5b6143b06145aa565b60a0604051908101604052808781526020013373ffffffffffffffffffffffffffffffffffffffff168152602001868152602001858152602001848152509050600260008873ffffffffffffffffffffffffffffffffffffffff1673ffffffffffffffffffffffffffffffffffffffff1681526020019081526020016000206007018190806001815401808255809150509060018203906000526020600020906005020160009091929091909150600082015181600001908051906020019061447a9291906145f0565b5060208201518160010160006101000a81548173ffffffffffffffffffffffffffffffffffffffff021916908373ffffffffffffffffffffffffffffffffffffffff16021790555060408201518160020190805190602001906144de9291906145f0565b5060608201518160030190805190602001906144fb9291906145f0565b5060808201518160040190805190602001906145189291906145f0565b50505050600191505095945050505050565b828054600181600116156101000203166002900490600052602060002090601f016020900481019282601f1061456b57805160ff1916838001178555614599565b82800160010185558215614599579182015b8281111561459857825182559160200191906001019061457d565b5b5090506145a69190614670565b5090565b60a06040519081016040528060608152602001600073ffffffffffffffffffffffffffffffffffffffff1681526020016060815260200160608152602001606081525090565b828054600181600116156101000203166002900490600052602060002090601f016020900481019282601f1061463157805160ff191683800117855561465f565b8280016001018555821561465f579182015b8281111561465e578251825591602001919060010190614643565b5b50905061466c9190614670565b5090565b61469291905b8082111561468e576000816000905550600101614676565b5090565b9056fea165627a7a72305820f4d9242ba1b5ca2f1f950f28442cbddaf9b6248b4be4841ac71aeeae079d0a3d0029",
  "source": "pragma solidity 0.5.0;\n\ncontract Health {\n\n  struct doctor {\n    bool exist;\n    string name;\n\n  }\n\n  struct record{\n\n    string prescriptionData;\n    address doctorAddress;\n    string visitDate;\n    string additionalNotes;\n    string fromPlace; // location clinic\n  }\n\n  struct access{\n    bool createOnly;\n    bool viewOnly;\n  }\n\n\n  struct patient {\n    bool exist;\n    string name;\n    string DOB;\n    string gender;\n    string hseAddress;\n    string contactNumber;\n    mapping(address => access) doctors;\n\n    record[] records;\n  }\n\n  address government;\n\n  mapping(address => doctor) public doctors;\n  mapping(address => patient)  patients;\n\n  address[] public doctorsArray;\n  address[] public patientsArray;\n\n  modifier onlyGovernment() {\n    require(msg.sender == government);\n    _;\n  }\n\n  constructor()public{\n    government = msg.sender;\n  }\n\n  function addDoctor(address _addr,string memory _name) public onlyGovernment returns (bool) {   // Government can only add doctor\n    require(!doctors[_addr].exist,'Doctor Already exist');\n\n    doctors[_addr].name = _name;\n    doctors[_addr].exist = true;\n\n    doctorsArray.push(_addr);\n    return true;\n\n  }\n\n  function removeDoctor(address _addr) public onlyGovernment returns (bool) {// Government can only remove doctor\n    require(doctors[_addr].exist,'Doctor does not exist');\n\n    doctors[_addr].exist = false;\n\n    return true;\n\n  }\n\n  function registerPatient(string memory _name,string memory _DOB,string memory _gender, string memory _hseAddress, string memory _contactNumber) public  returns (bool) {    // any one can register as a patient\n    require(!patients[msg.sender].exist,'Patient Already exist');\n\n    patients[msg.sender].exist = true;\n    patients[msg.sender].name = _name;\n    patients[msg.sender].DOB = _DOB;\n    patients[msg.sender].hseAddress = _hseAddress;\n    patients[msg.sender].contactNumber = _contactNumber;\n\n    patientsArray.push(msg.sender);\n\n\n    return true;\n\n  }\n\n\n  function giveCreateOnlyAccessToDoctor(address _addr) public  returns (bool) {  //patient give access to doctor\n    require(doctors[_addr].exist,'Doctor does not exist');\n    require(patients[msg.sender].exist,'Patient record does not exist.Please register first!!');\n    require(!patients[msg.sender].doctors[_addr].createOnly,'Doctor already has access !!');\n\n    patients[msg.sender].doctors[_addr].createOnly = true;\n\n    return true;\n  }\n\n  function revokeCreateOnlyAccessToDoctor(address _addr) public  returns (bool) {  //patient revoke access to doctor\n    require(doctors[_addr].exist,'Doctor does not exist');\n    require(patients[msg.sender].exist,'Patient record does not exist.Please register first!!');\n    require(patients[msg.sender].doctors[_addr].createOnly,'Doctor do not has access !!');\n\n    patients[msg.sender].doctors[_addr].createOnly = false;\n\n    return true;\n  }\n\n  function giveViewOnlyAccessToDoctor(address _addr) public  returns (bool) {  //patient give  view access to doctor\n    require(doctors[_addr].exist,'Doctor does not exist');\n    require(patients[msg.sender].exist,'Patient record does not exist.Please register first!!');\n    require(!patients[msg.sender].doctors[_addr].viewOnly,'Doctor already has access !!');\n\n    patients[msg.sender].doctors[_addr].viewOnly = true;\n\n    return true;\n  }\n\n  function revokeViewOnlyAccessToDoctor(address _addr) public  returns (bool) {  //patient  view revoke access to doctor\n    require(doctors[_addr].exist,'Doctor does not exist');\n    require(patients[msg.sender].exist,'Patient record does not exist.Please register first!!');\n    require(patients[msg.sender].doctors[_addr].viewOnly,'Doctor do not has access !!');\n\n    patients[msg.sender].doctors[_addr].viewOnly = false;\n\n    return true;\n  }\n\n  function addPrescriptionForPatient(address _addr, string memory _prescription,string memory _visitDate,string memory _additionalNotes, string memory _fromPlace) public  returns (bool) {  //doctor adds prescription for patient\n    require(doctors[msg.sender].exist,'Doctor does not exist. please register first');\n    require(patients[_addr].exist,'Patient record does not exist.');\n    require(patients[_addr].doctors[msg.sender].createOnly,'Doctor do not has access !!');\n\n\n    record memory newRecord = record({\n\n      prescriptionData:_prescription,\n      doctorAddress:msg.sender,\n      visitDate:_visitDate,\n      additionalNotes:_additionalNotes,\n      fromPlace:_fromPlace\n      });\n\n    patients[_addr].records.push(newRecord);\n\n    return true;\n  }\n\n\n  function getDoctorsCount() public view returns(uint count) {\n    return doctorsArray.length;\n  }\n\n\n  function getPatientsCount() public view returns(uint count) {\n    return patientsArray.length;\n  }\n\n\n\n  function getPatientsWithCreateOnlyAccess() public view  returns(address[] memory _patients) { // doctor can get all patients with create record access\n    require(doctors[msg.sender].exist,'Doctor Not Registered');\n\n    uint  count = patientsArray.length;\n\n    address[] memory dataList = new address[](count);\n\n    for( uint i = 0 ; i < getPatientsCount() ; i++){\n\n      if(patients[patientsArray[i]].doctors[msg.sender].createOnly){\n\n        dataList[i] = patientsArray[i];\n\n      }\n    }\n    return dataList;\n\n  }\n\n  function getPatientsWithViewOnlyAccess() public view  returns(address[] memory _patients) { // doctor can get all patients with viewOnly access\n    require(doctors[msg.sender].exist,'Doctor Not Registered');\n\n\n    uint  count = patientsArray.length;\n\n    address[] memory dataList = new address[](count);\n\n    for( uint i = 0 ; i < getPatientsCount() ; i++){\n\n      if(patients[patientsArray[i]].doctors[msg.sender].viewOnly){\n\n        dataList[i] = patientsArray[i];\n\n      }\n    }\n    return dataList;\n\n  }\n\n\n  function getDoctorsWithViewOnlyAccess() public view  returns(address[] memory _doctors) { // patients can get all doctor that have their view access\n    require(patients[msg.sender].exist,'Patient Not Registered');\n\n    uint  count = doctorsArray.length;\n\n    address[] memory dataList = new address[](count);\n\n    for( uint i = 0 ; i < getDoctorsCount() ; i++){\n\n      if(patients[msg.sender].doctors[doctorsArray[i]].viewOnly){\n\n        dataList[i] = doctorsArray[i];\n      }\n    }\n    return dataList;\n\n  }\n\n  function getDoctorsWithCreateOnlyAccess() public view  returns(address[] memory ) { // patients can get all doctor that have their create record access\n    require(patients[msg.sender].exist,'Patient Not Registered');\n\n    uint  count = doctorsArray.length;\n\n    address[] memory dataList = new address[](count);\n\n    for( uint i = 0 ; i < getDoctorsCount() ; i++){\n\n      if(patients[msg.sender].doctors[doctorsArray[i]].createOnly){\n\n        dataList[i] = doctorsArray[i];\n      }\n    }\n    return dataList;\n  }\n\n\n  function getPatients(address _addr) public view returns(string memory _name,string memory _DOB,string memory _gender) {\n    require(patients[_addr].exist,'Patient record does not exist.Please register first!!');\n    require(patients[_addr].doctors[msg.sender].viewOnly || _addr == msg.sender,'Do not has view access !!');\n\n    _name = patients[_addr].name;\n    _gender = patients[_addr].gender;\n    _DOB = patients[_addr].DOB;\n\n  }\n\n\n  function getPatientsRecordsCount(address _addr) public view returns(uint count) {  // can be viewed by patient himself and doctor who has view access\n    require(patients[_addr].exist,'Patient record does not exist.Please register first!!');\n    require(patients[_addr].doctors[msg.sender].viewOnly ||  _addr == msg.sender,'Do not has view access  !!');\n    return patients[_addr].records.length;\n  }\n\n  function getPatientsRecords(address _addr,uint256 index) public view returns(string memory _prescriptionData,\n    address _doctorAddress,string memory _doctorName,string memory _visitDate,string memory _additionalNotes,string memory _fromPlace) {   // can be viewed by patient himself and doctor who has view access\n    require(patients[_addr].exist,'Patient record does not exist.Please register first!!');\n    require(patients[_addr].doctors[msg.sender].viewOnly || _addr == msg.sender,'Do not has view access !!');\n\n    _prescriptionData =  patients[_addr].records[index].prescriptionData;\n    _doctorAddress =  patients[_addr].records[index].doctorAddress;\n    _doctorName =  doctors[_doctorAddress].name;\n    _visitDate =  patients[_addr].records[index].visitDate;\n    _additionalNotes =  patients[_addr].records[index].additionalNotes;\n    _fromPlace =  patients[_addr].records[index].fromPlace;\n  }\n\n\n}\n",
  "sourcePath": "/Users/glennwong/Downloads/healthcare-fyp-copy/Blockchain/contracts/Health.sol",
  "compiler": {
    "name": "solc",
    "version": "0.5.0+commit.1d4f565a.Emscripten.clang"
  },
  "schemaVersion": "3.0.9",
  "updatedAt": "2019-06-20T05:18:42.529Z",
  "devdoc": {
    "methods": {}
  },
  "userdoc": {
    "methods": {}
  }
}